{
  "_format": "hh-sol-artifact-1",
  "contractName": "CrowdfundingCampaign",
  "sourceName": "contracts/crowdfunding.sol",
  "abi": [
    {
      "inputs": [
        {
          "internalType": "uint256",
          "name": "_goal",
          "type": "uint256"
        },
        {
          "internalType": "uint256",
          "name": "_duration",
          "type": "uint256"
        }
      ],
      "stateMutability": "nonpayable",
      "type": "constructor"
    },
    {
      "inputs": [],
      "name": "contribute",
      "outputs": [],
      "stateMutability": "payable",
      "type": "function"
    },
    {
      "inputs": [
        {
          "internalType": "address",
          "name": "",
          "type": "address"
        }
      ],
      "name": "contributions",
      "outputs": [
        {
          "internalType": "uint256",
          "name": "",
          "type": "uint256"
        }
      ],
      "stateMutability": "view",
      "type": "function"
    },
    {
      "inputs": [],
      "name": "creator",
      "outputs": [
        {
          "internalType": "address",
          "name": "",
          "type": "address"
        }
      ],
      "stateMutability": "view",
      "type": "function"
    },
    {
      "inputs": [],
      "name": "endTime",
      "outputs": [
        {
          "internalType": "uint256",
          "name": "",
          "type": "uint256"
        }
      ],
      "stateMutability": "view",
      "type": "function"
    },
    {
      "inputs": [],
      "name": "goal",
      "outputs": [
        {
          "internalType": "uint256",
          "name": "",
          "type": "uint256"
        }
      ],
      "stateMutability": "view",
      "type": "function"
    },
    {
      "inputs": [],
      "name": "refund",
      "outputs": [],
      "stateMutability": "nonpayable",
      "type": "function"
    },
    {
      "inputs": [],
      "name": "totalContributed",
      "outputs": [
        {
          "internalType": "uint256",
          "name": "",
          "type": "uint256"
        }
      ],
      "stateMutability": "view",
      "type": "function"
    },
    {
      "inputs": [],
      "name": "withdraw",
      "outputs": [],
      "stateMutability": "nonpayable",
      "type": "function"
    }
  ],
  "bytecode": "0x608060405234801561001057600080fd5b50604051610aca380380610aca833981810160405281019061003291906100a7565b336000806101000a81548173ffffffffffffffffffffffffffffffffffffffff021916908373ffffffffffffffffffffffffffffffffffffffff16021790555081600181905550804261008591906100e3565b6002819055505050610189565b6000815190506100a181610172565b92915050565b600080604083850312156100ba57600080fd5b60006100c885828601610092565b92505060206100d985828601610092565b9150509250929050565b60006100ee82610139565b91506100f983610139565b9250827fffffffffffffffffffffffffffffffffffffffffffffffffffffffffffffffff0382111561012e5761012d610143565b5b828201905092915050565b6000819050919050565b7f4e487b7100000000000000000000000000000000000000000000000000000000600052601160045260246000fd5b61017b81610139565b811461018657600080fd5b50565b610932806101986000396000f3fe60806040526004361061007b5760003560e01c8063401938831161004e578063401938831461011857806342e94c9014610143578063590e1ae314610180578063d7bb99ba146101975761007b565b8063023f41471461008057806302d05d3f146100ab5780633197cbb6146100d65780633ccfd60b14610101575b600080fd5b34801561008c57600080fd5b506100956101a1565b6040516100a2919061072b565b60405180910390f35b3480156100b757600080fd5b506100c06101a7565b6040516100cd9190610670565b60405180910390f35b3480156100e257600080fd5b506100eb6101cb565b6040516100f8919061072b565b60405180910390f35b34801561010d57600080fd5b506101166101d1565b005b34801561012457600080fd5b5061012d610334565b60405161013a919061072b565b60405180910390f35b34801561014f57600080fd5b5061016a6004803603810190610165919061057a565b61033a565b604051610177919061072b565b60405180910390f35b34801561018c57600080fd5b50610195610352565b005b61019f6104b0565b005b60035481565b60008054906101000a900473ffffffffffffffffffffffffffffffffffffffff1681565b60025481565b60008054906101000a900473ffffffffffffffffffffffffffffffffffffffff1673ffffffffffffffffffffffffffffffffffffffff163373ffffffffffffffffffffffffffffffffffffffff161461025f576040517f08c379a0000000000000000000000000000000000000000000000000000000008152600401610256906106eb565b60405180910390fd5b60015460035410156102a6576040517f08c379a000000000000000000000000000000000000000000000000000000000815260040161029d9061070b565b60405180910390fd5b6002544210156102eb576040517f08c379a00000000000000000000000000000000000000000000000000000000081526004016102e2906106ab565b60405180910390fd5b3373ffffffffffffffffffffffffffffffffffffffff166108fc479081150290604051600060405180830381858888f19350505050158015610331573d6000803e3d6000fd5b50565b60015481565b60046020528060005260406000206000915090505481565b600254421015610397576040517f08c379a000000000000000000000000000000000000000000000000000000000815260040161038e906106ab565b60405180910390fd5b600154600354106103dd576040517f08c379a00000000000000000000000000000000000000000000000000000000081526004016103d4906106cb565b60405180910390fd5b6000600460003373ffffffffffffffffffffffffffffffffffffffff1673ffffffffffffffffffffffffffffffffffffffff1681526020019081526020016000205490506000600460003373ffffffffffffffffffffffffffffffffffffffff1673ffffffffffffffffffffffffffffffffffffffff168152602001908152602001600020819055503373ffffffffffffffffffffffffffffffffffffffff166108fc829081150290604051600060405180830381858888f193505050501580156104ac573d6000803e3d6000fd5b5050565b60025442106104f4576040517f08c379a00000000000000000000000000000000000000000000000000000000081526004016104eb9061068b565b60405180910390fd5b34600460003373ffffffffffffffffffffffffffffffffffffffff1673ffffffffffffffffffffffffffffffffffffffff16815260200190815260200160002060008282546105439190610757565b92505081905550346003600082825461055c9190610757565b92505081905550565b600081359050610574816108e5565b92915050565b60006020828403121561058c57600080fd5b600061059a84828501610565565b91505092915050565b6105ac816107ad565b82525050565b60006105bf601283610746565b91506105ca82610818565b602082019050919050565b60006105e2601a83610746565b91506105ed82610841565b602082019050919050565b6000610605601583610746565b91506106108261086a565b602082019050919050565b6000610628601983610746565b915061063382610893565b602082019050919050565b600061064b601083610746565b9150610656826108bc565b602082019050919050565b61066a816107df565b82525050565b600060208201905061068560008301846105a3565b92915050565b600060208201905081810360008301526106a4816105b2565b9050919050565b600060208201905081810360008301526106c4816105d5565b9050919050565b600060208201905081810360008301526106e4816105f8565b9050919050565b600060208201905081810360008301526107048161061b565b9050919050565b600060208201905081810360008301526107248161063e565b9050919050565b60006020820190506107406000830184610661565b92915050565b600082825260208201905092915050565b6000610762826107df565b915061076d836107df565b9250827fffffffffffffffffffffffffffffffffffffffffffffffffffffffffffffffff038211156107a2576107a16107e9565b5b828201905092915050565b60006107b8826107bf565b9050919050565b600073ffffffffffffffffffffffffffffffffffffffff82169050919050565b6000819050919050565b7f4e487b7100000000000000000000000000000000000000000000000000000000600052601160045260246000fd5b7f43616d706169676e2068617320656e6465640000000000000000000000000000600082015250565b7f43616d706169676e20686173206e6f7420656e64656420796574000000000000600082015250565b7f476f616c20686173206265656e20726561636865640000000000000000000000600082015250565b7f4f6e6c792063726561746f722063616e20776974686472617700000000000000600082015250565b7f476f616c206e6f74207265616368656400000000000000000000000000000000600082015250565b6108ee816107ad565b81146108f957600080fd5b5056fea2646970667358221220020ff5de9ab842cf096501d2f502d3c54736e14d224e71c3a15323584d39520664736f6c63430008040033",
  "linkReferences": {},
  "deployedLinkReferences": {}
}